{
	"contracts/Transaction.sol": {
		"Transaction": {
			"abi": [
				{
					"inputs": [
						{
							"internalType": "address",
							"name": "_owner",
							"type": "address"
						},
						{
							"internalType": "uint256",
							"name": "_fee",
							"type": "uint256"
						},
						{
							"internalType": "uint16",
							"name": "_amount",
							"type": "uint16"
						}
					],
					"stateMutability": "nonpayable",
					"type": "constructor"
				},
				{
					"inputs": [],
					"name": "fund",
					"outputs": [],
					"stateMutability": "payable",
					"type": "function"
				},
				{
					"inputs": [],
					"name": "funder",
					"outputs": [
						{
							"internalType": "address",
							"name": "",
							"type": "address"
						}
					],
					"stateMutability": "view",
					"type": "function"
				},
				{
					"inputs": [],
					"name": "getFee",
					"outputs": [
						{
							"internalType": "uint256",
							"name": "",
							"type": "uint256"
						}
					],
					"stateMutability": "view",
					"type": "function"
				},
				{
					"inputs": [],
					"name": "getOwner",
					"outputs": [
						{
							"internalType": "address",
							"name": "",
							"type": "address"
						}
					],
					"stateMutability": "view",
					"type": "function"
				},
				{
					"inputs": [],
					"name": "i_fee",
					"outputs": [
						{
							"internalType": "uint256",
							"name": "",
							"type": "uint256"
						}
					],
					"stateMutability": "view",
					"type": "function"
				},
				{
					"inputs": [],
					"name": "i_owner",
					"outputs": [
						{
							"internalType": "address",
							"name": "",
							"type": "address"
						}
					],
					"stateMutability": "view",
					"type": "function"
				},
				{
					"inputs": [],
					"name": "withdraw",
					"outputs": [],
					"stateMutability": "nonpayable",
					"type": "function"
				}
			],
			"devdoc": {
				"kind": "dev",
				"methods": {},
				"version": 1
			},
			"evm": {
				"assembly": "    /* \"contracts/Transaction.sol\":96:1870  contract Transaction is Storage{... */\n  mstore(0x40, 0xe0)\n    /* \"contracts/Transaction.sol\":698:703  false */\n  0x00\n    /* \"contracts/Transaction.sol\":684:703  bool isDone = false */\n  0x02\n  exp(0x0100, 0x14)\n  dup2\n  sload\n  dup2\n  0xff\n  mul\n  not\n  and\n  swap1\n  dup4\n  iszero\n  iszero\n  mul\n  or\n  swap1\n  sstore\n  pop\n    /* \"contracts/Transaction.sol\":728:733  false */\n  0x00\n    /* \"contracts/Transaction.sol\":710:733  bool isWithdraw = false */\n  0x02\n  exp(0x0100, 0x15)\n  dup2\n  sload\n  dup2\n  0xff\n  mul\n  not\n  and\n  swap1\n  dup4\n  iszero\n  iszero\n  mul\n  or\n  swap1\n  sstore\n  pop\n    /* \"contracts/Transaction.sol\":742:890  constructor(address _owner, uint256 _fee, uint16 _amount) {... */\n  callvalue\n  dup1\n  iszero\n  tag_1\n  jumpi\n  0x00\n  dup1\n  revert\ntag_1:\n  pop\n  mload(0x40)\n  sub(codesize, bytecodeSize)\n  dup1\n  bytecodeSize\n  dup4\n  codecopy\n  dup2\n  dup2\n  add\n  0x40\n  mstore\n  dup2\n  add\n  swap1\n  tag_2\n  swap2\n  swap1\n  tag_3\n  jump\t// in\ntag_2:\n    /* \"contracts/Transaction.sol\":821:827  _owner */\n  dup3\n    /* \"contracts/Transaction.sol\":811:827  i_owner = _owner */\n  0xffffffffffffffffffffffffffffffffffffffff\n  and\n  0x80\n  dup2\n  0xffffffffffffffffffffffffffffffffffffffff\n  and\n  dup2\n  mstore\n  pop\n  pop\n    /* \"contracts/Transaction.sol\":846:850  _fee */\n  dup2\n    /* \"contracts/Transaction.sol\":838:850  i_fee = _fee */\n  0xa0\n  dup2\n  dup2\n  mstore\n  pop\n  pop\n    /* \"contracts/Transaction.sol\":875:882  _amount */\n  dup1\n    /* \"contracts/Transaction.sol\":861:882  i_dayAmount = _amount */\n  0xffff\n  and\n  0xc0\n  dup2\n  0xffff\n  and\n  dup2\n  mstore\n  pop\n  pop\n    /* \"contracts/Transaction.sol\":742:890  constructor(address _owner, uint256 _fee, uint16 _amount) {... */\n  pop\n  pop\n  pop\n    /* \"contracts/Transaction.sol\":96:1870  contract Transaction is Storage{... */\n  jump(tag_6)\n    /* \"#utility.yul\":88:205   */\ntag_8:\n    /* \"#utility.yul\":197:198   */\n  0x00\n    /* \"#utility.yul\":194:195   */\n  dup1\n    /* \"#utility.yul\":187:199   */\n  revert\n    /* \"#utility.yul\":334:460   */\ntag_10:\n    /* \"#utility.yul\":371:378   */\n  0x00\n    /* \"#utility.yul\":411:453   */\n  0xffffffffffffffffffffffffffffffffffffffff\n    /* \"#utility.yul\":404:409   */\n  dup3\n    /* \"#utility.yul\":400:454   */\n  and\n    /* \"#utility.yul\":389:454   */\n  swap1\n  pop\n    /* \"#utility.yul\":334:460   */\n  swap2\n  swap1\n  pop\n  jump\t// out\n    /* \"#utility.yul\":466:562   */\ntag_11:\n    /* \"#utility.yul\":503:510   */\n  0x00\n    /* \"#utility.yul\":532:556   */\n  tag_26\n    /* \"#utility.yul\":550:555   */\n  dup3\n    /* \"#utility.yul\":532:556   */\n  tag_10\n  jump\t// in\ntag_26:\n    /* \"#utility.yul\":521:556   */\n  swap1\n  pop\n    /* \"#utility.yul\":466:562   */\n  swap2\n  swap1\n  pop\n  jump\t// out\n    /* \"#utility.yul\":568:690   */\ntag_12:\n    /* \"#utility.yul\":641:665   */\n  tag_28\n    /* \"#utility.yul\":659:664   */\n  dup2\n    /* \"#utility.yul\":641:665   */\n  tag_11\n  jump\t// in\ntag_28:\n    /* \"#utility.yul\":634:639   */\n  dup2\n    /* \"#utility.yul\":631:666   */\n  eq\n    /* \"#utility.yul\":621:684   */\n  tag_29\n  jumpi\n    /* \"#utility.yul\":680:681   */\n  0x00\n    /* \"#utility.yul\":677:678   */\n  dup1\n    /* \"#utility.yul\":670:682   */\n  revert\n    /* \"#utility.yul\":621:684   */\ntag_29:\n    /* \"#utility.yul\":568:690   */\n  pop\n  jump\t// out\n    /* \"#utility.yul\":696:839   */\ntag_13:\n    /* \"#utility.yul\":753:758   */\n  0x00\n    /* \"#utility.yul\":784:790   */\n  dup2\n    /* \"#utility.yul\":778:791   */\n  mload\n    /* \"#utility.yul\":769:791   */\n  swap1\n  pop\n    /* \"#utility.yul\":800:833   */\n  tag_31\n    /* \"#utility.yul\":827:832   */\n  dup2\n    /* \"#utility.yul\":800:833   */\n  tag_12\n  jump\t// in\ntag_31:\n    /* \"#utility.yul\":696:839   */\n  swap3\n  swap2\n  pop\n  pop\n  jump\t// out\n    /* \"#utility.yul\":845:922   */\ntag_14:\n    /* \"#utility.yul\":882:889   */\n  0x00\n    /* \"#utility.yul\":911:916   */\n  dup2\n    /* \"#utility.yul\":900:916   */\n  swap1\n  pop\n    /* \"#utility.yul\":845:922   */\n  swap2\n  swap1\n  pop\n  jump\t// out\n    /* \"#utility.yul\":928:1050   */\ntag_15:\n    /* \"#utility.yul\":1001:1025   */\n  tag_34\n    /* \"#utility.yul\":1019:1024   */\n  dup2\n    /* \"#utility.yul\":1001:1025   */\n  tag_14\n  jump\t// in\ntag_34:\n    /* \"#utility.yul\":994:999   */\n  dup2\n    /* \"#utility.yul\":991:1026   */\n  eq\n    /* \"#utility.yul\":981:1044   */\n  tag_35\n  jumpi\n    /* \"#utility.yul\":1040:1041   */\n  0x00\n    /* \"#utility.yul\":1037:1038   */\n  dup1\n    /* \"#utility.yul\":1030:1042   */\n  revert\n    /* \"#utility.yul\":981:1044   */\ntag_35:\n    /* \"#utility.yul\":928:1050   */\n  pop\n  jump\t// out\n    /* \"#utility.yul\":1056:1199   */\ntag_16:\n    /* \"#utility.yul\":1113:1118   */\n  0x00\n    /* \"#utility.yul\":1144:1150   */\n  dup2\n    /* \"#utility.yul\":1138:1151   */\n  mload\n    /* \"#utility.yul\":1129:1151   */\n  swap1\n  pop\n    /* \"#utility.yul\":1160:1193   */\n  tag_37\n    /* \"#utility.yul\":1187:1192   */\n  dup2\n    /* \"#utility.yul\":1160:1193   */\n  tag_15\n  jump\t// in\ntag_37:\n    /* \"#utility.yul\":1056:1199   */\n  swap3\n  swap2\n  pop\n  pop\n  jump\t// out\n    /* \"#utility.yul\":1205:1294   */\ntag_17:\n    /* \"#utility.yul\":1241:1248   */\n  0x00\n    /* \"#utility.yul\":1281:1287   */\n  0xffff\n    /* \"#utility.yul\":1274:1279   */\n  dup3\n    /* \"#utility.yul\":1270:1288   */\n  and\n    /* \"#utility.yul\":1259:1288   */\n  swap1\n  pop\n    /* \"#utility.yul\":1205:1294   */\n  swap2\n  swap1\n  pop\n  jump\t// out\n    /* \"#utility.yul\":1300:1420   */\ntag_18:\n    /* \"#utility.yul\":1372:1395   */\n  tag_40\n    /* \"#utility.yul\":1389:1394   */\n  dup2\n    /* \"#utility.yul\":1372:1395   */\n  tag_17\n  jump\t// in\ntag_40:\n    /* \"#utility.yul\":1365:1370   */\n  dup2\n    /* \"#utility.yul\":1362:1396   */\n  eq\n    /* \"#utility.yul\":1352:1414   */\n  tag_41\n  jumpi\n    /* \"#utility.yul\":1410:1411   */\n  0x00\n    /* \"#utility.yul\":1407:1408   */\n  dup1\n    /* \"#utility.yul\":1400:1412   */\n  revert\n    /* \"#utility.yul\":1352:1414   */\ntag_41:\n    /* \"#utility.yul\":1300:1420   */\n  pop\n  jump\t// out\n    /* \"#utility.yul\":1426:1567   */\ntag_19:\n    /* \"#utility.yul\":1482:1487   */\n  0x00\n    /* \"#utility.yul\":1513:1519   */\n  dup2\n    /* \"#utility.yul\":1507:1520   */\n  mload\n    /* \"#utility.yul\":1498:1520   */\n  swap1\n  pop\n    /* \"#utility.yul\":1529:1561   */\n  tag_43\n    /* \"#utility.yul\":1555:1560   */\n  dup2\n    /* \"#utility.yul\":1529:1561   */\n  tag_18\n  jump\t// in\ntag_43:\n    /* \"#utility.yul\":1426:1567   */\n  swap3\n  swap2\n  pop\n  pop\n  jump\t// out\n    /* \"#utility.yul\":1573:2234   */\ntag_3:\n    /* \"#utility.yul\":1660:1666   */\n  0x00\n    /* \"#utility.yul\":1668:1674   */\n  dup1\n    /* \"#utility.yul\":1676:1682   */\n  0x00\n    /* \"#utility.yul\":1725:1727   */\n  0x60\n    /* \"#utility.yul\":1713:1722   */\n  dup5\n    /* \"#utility.yul\":1704:1711   */\n  dup7\n    /* \"#utility.yul\":1700:1723   */\n  sub\n    /* \"#utility.yul\":1696:1728   */\n  slt\n    /* \"#utility.yul\":1693:1812   */\n  iszero\n  tag_45\n  jumpi\n    /* \"#utility.yul\":1731:1810   */\n  tag_46\n  tag_8\n  jump\t// in\ntag_46:\n    /* \"#utility.yul\":1693:1812   */\ntag_45:\n    /* \"#utility.yul\":1851:1852   */\n  0x00\n    /* \"#utility.yul\":1876:1940   */\n  tag_47\n    /* \"#utility.yul\":1932:1939   */\n  dup7\n    /* \"#utility.yul\":1923:1929   */\n  dup3\n    /* \"#utility.yul\":1912:1921   */\n  dup8\n    /* \"#utility.yul\":1908:1930   */\n  add\n    /* \"#utility.yul\":1876:1940   */\n  tag_13\n  jump\t// in\ntag_47:\n    /* \"#utility.yul\":1866:1940   */\n  swap4\n  pop\n    /* \"#utility.yul\":1822:1950   */\n  pop\n    /* \"#utility.yul\":1989:1991   */\n  0x20\n    /* \"#utility.yul\":2015:2079   */\n  tag_48\n    /* \"#utility.yul\":2071:2078   */\n  dup7\n    /* \"#utility.yul\":2062:2068   */\n  dup3\n    /* \"#utility.yul\":2051:2060   */\n  dup8\n    /* \"#utility.yul\":2047:2069   */\n  add\n    /* \"#utility.yul\":2015:2079   */\n  tag_16\n  jump\t// in\ntag_48:\n    /* \"#utility.yul\":2005:2079   */\n  swap3\n  pop\n    /* \"#utility.yul\":1960:2089   */\n  pop\n    /* \"#utility.yul\":2128:2130   */\n  0x40\n    /* \"#utility.yul\":2154:2217   */\n  tag_49\n    /* \"#utility.yul\":2209:2216   */\n  dup7\n    /* \"#utility.yul\":2200:2206   */\n  dup3\n    /* \"#utility.yul\":2189:2198   */\n  dup8\n    /* \"#utility.yul\":2185:2207   */\n  add\n    /* \"#utility.yul\":2154:2217   */\n  tag_19\n  jump\t// in\ntag_49:\n    /* \"#utility.yul\":2144:2217   */\n  swap2\n  pop\n    /* \"#utility.yul\":2099:2227   */\n  pop\n    /* \"#utility.yul\":1573:2234   */\n  swap3\n  pop\n  swap3\n  pop\n  swap3\n  jump\t// out\n    /* \"contracts/Transaction.sol\":96:1870  contract Transaction is Storage{... */\ntag_6:\n  mload(0x80)\n  mload(0xa0)\n  mload(0xc0)\n  codecopy(0x00, dataOffset(sub_0), dataSize(sub_0))\n  0x00\n  assignImmutable(\"0x60750e84e711126719e0768062cd3784906b181c157d8590d52843dc3c91240f\")\n  0x00\n  assignImmutable(\"0x5b9d82bdb7ae056a203cf64bdf26f3fdec584cdfaca2ac8b4c3d0c5b66e90969\")\n  0x00\n  assignImmutable(\"0x4393e7114eb674248a1480712950c28cb06e118e040859a2eafa3ca8a6dfbd69\")\n  return(0x00, dataSize(sub_0))\nstop\n\nsub_0: assembly {\n        /* \"contracts/Transaction.sol\":96:1870  contract Transaction is Storage{... */\n      mstore(0x40, 0x80)\n      jumpi(tag_1, lt(calldatasize, 0x04))\n      shr(0xe0, calldataload(0x00))\n      dup1\n      0x893d20e8\n      gt\n      tag_9\n      jumpi\n      dup1\n      0x893d20e8\n      eq\n      tag_5\n      jumpi\n      dup1\n      0xb60d4288\n      eq\n      tag_6\n      jumpi\n      dup1\n      0xced72f87\n      eq\n      tag_7\n      jumpi\n      dup1\n      0xdba6335f\n      eq\n      tag_8\n      jumpi\n      jump(tag_1)\n    tag_9:\n      dup1\n      0x041ae880\n      eq\n      tag_2\n      jumpi\n      dup1\n      0x3ccfd60b\n      eq\n      tag_3\n      jumpi\n      dup1\n      0x65436609\n      eq\n      tag_4\n      jumpi\n    tag_1:\n      0x00\n      dup1\n      revert\n        /* \"contracts/Transaction.sol\":584:605  address public funder */\n    tag_2:\n      callvalue\n      dup1\n      iszero\n      tag_10\n      jumpi\n      0x00\n      dup1\n      revert\n    tag_10:\n      pop\n      tag_11\n      tag_12\n      jump\t// in\n    tag_11:\n      mload(0x40)\n      tag_13\n      swap2\n      swap1\n      tag_14\n      jump\t// in\n    tag_13:\n      mload(0x40)\n      dup1\n      swap2\n      sub\n      swap1\n      return\n        /* \"contracts/Transaction.sol\":1507:1744  function withdraw() public {... */\n    tag_3:\n      callvalue\n      dup1\n      iszero\n      tag_15\n      jumpi\n      0x00\n      dup1\n      revert\n    tag_15:\n      pop\n      tag_16\n      tag_17\n      jump\t// in\n    tag_16:\n      stop\n        /* \"contracts/Transaction.sol\":612:642  uint256 public immutable i_fee */\n    tag_4:\n      callvalue\n      dup1\n      iszero\n      tag_18\n      jumpi\n      0x00\n      dup1\n      revert\n    tag_18:\n      pop\n      tag_19\n      tag_20\n      jump\t// in\n    tag_19:\n      mload(0x40)\n      tag_21\n      swap2\n      swap1\n      tag_22\n      jump\t// in\n    tag_21:\n      mload(0x40)\n      dup1\n      swap2\n      sub\n      swap1\n      return\n        /* \"contracts/Transaction.sol\":983:1065  function getOwner() public view returns(address) {... */\n    tag_5:\n      callvalue\n      dup1\n      iszero\n      tag_23\n      jumpi\n      0x00\n      dup1\n      revert\n    tag_23:\n      pop\n      tag_24\n      tag_25\n      jump\t// in\n    tag_24:\n      mload(0x40)\n      tag_26\n      swap2\n      swap1\n      tag_14\n      jump\t// in\n    tag_26:\n      mload(0x40)\n      dup1\n      swap2\n      sub\n      swap1\n      return\n        /* \"contracts/Transaction.sol\":1073:1499  function fund() public payable notOwner haveAccount{... */\n    tag_6:\n      tag_27\n      tag_28\n      jump\t// in\n    tag_27:\n      stop\n        /* \"contracts/Transaction.sol\":898:975  function getFee()public view returns(uint256) {... */\n    tag_7:\n      callvalue\n      dup1\n      iszero\n      tag_29\n      jumpi\n      0x00\n      dup1\n      revert\n    tag_29:\n      pop\n      tag_30\n      tag_31\n      jump\t// in\n    tag_30:\n      mload(0x40)\n      tag_32\n      swap2\n      swap1\n      tag_22\n      jump\t// in\n    tag_32:\n      mload(0x40)\n      dup1\n      swap2\n      sub\n      swap1\n      return\n        /* \"contracts/Transaction.sol\":545:577  address public immutable i_owner */\n    tag_8:\n      callvalue\n      dup1\n      iszero\n      tag_33\n      jumpi\n      0x00\n      dup1\n      revert\n    tag_33:\n      pop\n      tag_34\n      tag_35\n      jump\t// in\n    tag_34:\n      mload(0x40)\n      tag_36\n      swap2\n      swap1\n      tag_14\n      jump\t// in\n    tag_36:\n      mload(0x40)\n      dup1\n      swap2\n      sub\n      swap1\n      return\n        /* \"contracts/Transaction.sol\":584:605  address public funder */\n    tag_12:\n      0x02\n      0x00\n      swap1\n      sload\n      swap1\n      0x0100\n      exp\n      swap1\n      div\n      0xffffffffffffffffffffffffffffffffffffffff\n      and\n      dup2\n      jump\t// out\n        /* \"contracts/Transaction.sol\":1507:1744  function withdraw() public {... */\n    tag_17:\n        /* \"contracts/Transaction.sol\":1567:1572  false */\n      0x00\n        /* \"contracts/Transaction.sol\":1553:1572  isWithdraw == false */\n      iszero\n      iszero\n        /* \"contracts/Transaction.sol\":1553:1563  isWithdraw */\n      0x02\n      0x15\n      swap1\n      sload\n      swap1\n      0x0100\n      exp\n      swap1\n      div\n      0xff\n      and\n        /* \"contracts/Transaction.sol\":1553:1572  isWithdraw == false */\n      iszero\n      iszero\n      eq\n        /* \"contracts/Transaction.sol\":1545:1573  require(isWithdraw == false) */\n      tag_38\n      jumpi\n      0x00\n      dup1\n      revert\n    tag_38:\n        /* \"contracts/Transaction.sol\":1585:1601  bool callSuccess */\n      0x00\n        /* \"contracts/Transaction.sol\":1615:1622  i_owner */\n      immutable(\"0x4393e7114eb674248a1480712950c28cb06e118e040859a2eafa3ca8a6dfbd69\")\n        /* \"contracts/Transaction.sol\":1607:1628  payable(i_owner).call */\n      0xffffffffffffffffffffffffffffffffffffffff\n      and\n        /* \"contracts/Transaction.sol\":1636:1657  address(this).balance */\n      selfbalance\n        /* \"contracts/Transaction.sol\":1607:1662  payable(i_owner).call{value: address(this).balance}(\"\") */\n      mload(0x40)\n      tag_39\n      swap1\n      tag_40\n      jump\t// in\n    tag_39:\n      0x00\n      mload(0x40)\n      dup1\n      dup4\n      sub\n      dup2\n      dup6\n      dup8\n      gas\n      call\n      swap3\n      pop\n      pop\n      pop\n      returndatasize\n      dup1\n      0x00\n      dup2\n      eq\n      tag_43\n      jumpi\n      mload(0x40)\n      swap2\n      pop\n      and(add(returndatasize, 0x3f), not(0x1f))\n      dup3\n      add\n      0x40\n      mstore\n      returndatasize\n      dup3\n      mstore\n      returndatasize\n      0x00\n      0x20\n      dup5\n      add\n      returndatacopy\n      jump(tag_42)\n    tag_43:\n      0x60\n      swap2\n      pop\n    tag_42:\n      pop\n        /* \"contracts/Transaction.sol\":1584:1662  (bool callSuccess, ) = payable(i_owner).call{value: address(this).balance}(\"\") */\n      pop\n      swap1\n      pop\n        /* \"contracts/Transaction.sol\":1681:1692  callSuccess */\n      dup1\n        /* \"contracts/Transaction.sol\":1673:1708  require(callSuccess, \"Call failed\") */\n      tag_44\n      jumpi\n      mload(0x40)\n      0x08c379a000000000000000000000000000000000000000000000000000000000\n      dup2\n      mstore\n      0x04\n      add\n      tag_45\n      swap1\n      tag_46\n      jump\t// in\n    tag_45:\n      mload(0x40)\n      dup1\n      swap2\n      sub\n      swap1\n      revert\n    tag_44:\n        /* \"contracts/Transaction.sol\":1732:1736  true */\n      0x01\n        /* \"contracts/Transaction.sol\":1719:1729  isWithdraw */\n      0x02\n      0x15\n        /* \"contracts/Transaction.sol\":1719:1736  isWithdraw = true */\n      0x0100\n      exp\n      dup2\n      sload\n      dup2\n      0xff\n      mul\n      not\n      and\n      swap1\n      dup4\n      iszero\n      iszero\n      mul\n      or\n      swap1\n      sstore\n      pop\n        /* \"contracts/Transaction.sol\":1534:1744  {... */\n      pop\n        /* \"contracts/Transaction.sol\":1507:1744  function withdraw() public {... */\n      jump\t// out\n        /* \"contracts/Transaction.sol\":612:642  uint256 public immutable i_fee */\n    tag_20:\n      immutable(\"0x5b9d82bdb7ae056a203cf64bdf26f3fdec584cdfaca2ac8b4c3d0c5b66e90969\")\n      dup2\n      jump\t// out\n        /* \"contracts/Transaction.sol\":983:1065  function getOwner() public view returns(address) {... */\n    tag_25:\n        /* \"contracts/Transaction.sol\":1023:1030  address */\n      0x00\n        /* \"contracts/Transaction.sol\":1050:1057  i_owner */\n      immutable(\"0x4393e7114eb674248a1480712950c28cb06e118e040859a2eafa3ca8a6dfbd69\")\n        /* \"contracts/Transaction.sol\":1043:1057  return i_owner */\n      swap1\n      pop\n        /* \"contracts/Transaction.sol\":983:1065  function getOwner() public view returns(address) {... */\n      swap1\n      jump\t// out\n        /* \"contracts/Transaction.sol\":1073:1499  function fund() public payable notOwner haveAccount{... */\n    tag_28:\n        /* \"contracts/Transaction.sol\":189:196  i_owner */\n      immutable(\"0x4393e7114eb674248a1480712950c28cb06e118e040859a2eafa3ca8a6dfbd69\")\n        /* \"contracts/Transaction.sol\":175:196  msg.sender != i_owner */\n      0xffffffffffffffffffffffffffffffffffffffff\n      and\n        /* \"contracts/Transaction.sol\":175:185  msg.sender */\n      caller\n        /* \"contracts/Transaction.sol\":175:196  msg.sender != i_owner */\n      0xffffffffffffffffffffffffffffffffffffffff\n      and\n      sub\n        /* \"contracts/Transaction.sol\":167:236  require(msg.sender != i_owner,\"Owner can't pay for this transaction\") */\n      tag_49\n      jumpi\n      mload(0x40)\n      0x08c379a000000000000000000000000000000000000000000000000000000000\n      dup2\n      mstore\n      0x04\n      add\n      tag_50\n      swap1\n      tag_51\n      jump\t// in\n    tag_50:\n      mload(0x40)\n      dup1\n      swap2\n      sub\n      swap1\n      revert\n    tag_49:\n        /* \"contracts/Storage.sol\":390:394  true */\n      0x01\n        /* \"contracts/Storage.sol\":364:394  hasAccount[msg.sender] == true */\n      iszero\n      iszero\n        /* \"contracts/Storage.sol\":364:374  hasAccount */\n      0x00\n        /* \"contracts/Storage.sol\":364:386  hasAccount[msg.sender] */\n      dup1\n        /* \"contracts/Storage.sol\":375:385  msg.sender */\n      caller\n        /* \"contracts/Storage.sol\":364:386  hasAccount[msg.sender] */\n      0xffffffffffffffffffffffffffffffffffffffff\n      and\n      0xffffffffffffffffffffffffffffffffffffffff\n      and\n      dup2\n      mstore\n      0x20\n      add\n      swap1\n      dup2\n      mstore\n      0x20\n      add\n      0x00\n      keccak256\n      0x00\n      swap1\n      sload\n      swap1\n      0x0100\n      exp\n      swap1\n      div\n      0xff\n      and\n        /* \"contracts/Storage.sol\":364:394  hasAccount[msg.sender] == true */\n      iszero\n      iszero\n      eq\n        /* \"contracts/Storage.sol\":356:395  require(hasAccount[msg.sender] == true) */\n      tag_53\n      jumpi\n      0x00\n      dup1\n      revert\n    tag_53:\n        /* \"contracts/Transaction.sol\":1153:1158  false */\n      0x00\n        /* \"contracts/Transaction.sol\":1143:1158  isDone == false */\n      iszero\n      iszero\n        /* \"contracts/Transaction.sol\":1143:1149  isDone */\n      0x02\n      0x14\n      swap1\n      sload\n      swap1\n      0x0100\n      exp\n      swap1\n      div\n      0xff\n      and\n        /* \"contracts/Transaction.sol\":1143:1158  isDone == false */\n      iszero\n      iszero\n      eq\n        /* \"contracts/Transaction.sol\":1135:1187  require(isDone == false, \"This transaction is done\") */\n      tag_55\n      jumpi\n      mload(0x40)\n      0x08c379a000000000000000000000000000000000000000000000000000000000\n      dup2\n      mstore\n      0x04\n      add\n      tag_56\n      swap1\n      tag_57\n      jump\t// in\n    tag_56:\n      mload(0x40)\n      dup1\n      swap2\n      sub\n      swap1\n      revert\n    tag_55:\n        /* \"contracts/Transaction.sol\":1219:1224  i_fee */\n      immutable(\"0x5b9d82bdb7ae056a203cf64bdf26f3fdec584cdfaca2ac8b4c3d0c5b66e90969\")\n        /* \"contracts/Transaction.sol\":1206:1215  msg.value */\n      callvalue\n        /* \"contracts/Transaction.sol\":1206:1224  msg.value >= i_fee */\n      lt\n      iszero\n        /* \"contracts/Transaction.sol\":1198:1242  require(msg.value >= i_fee,\"not enough ETH\") */\n      tag_58\n      jumpi\n      mload(0x40)\n      0x08c379a000000000000000000000000000000000000000000000000000000000\n      dup2\n      mstore\n      0x04\n      add\n      tag_59\n      swap1\n      tag_60\n      jump\t// in\n    tag_59:\n      mload(0x40)\n      dup1\n      swap2\n      sub\n      swap1\n      revert\n    tag_58:\n        /* \"contracts/Transaction.sol\":1283:1294  i_dayAmount */\n      immutable(\"0x60750e84e711126719e0768062cd3784906b181c157d8590d52843dc3c91240f\")\n        /* \"contracts/Transaction.sol\":1253:1264  TicketOwner */\n      0x01\n        /* \"contracts/Transaction.sol\":1253:1273  TicketOwner[i_owner] */\n      0x00\n        /* \"contracts/Transaction.sol\":1265:1272  i_owner */\n      immutable(\"0x4393e7114eb674248a1480712950c28cb06e118e040859a2eafa3ca8a6dfbd69\")\n        /* \"contracts/Transaction.sol\":1253:1273  TicketOwner[i_owner] */\n      0xffffffffffffffffffffffffffffffffffffffff\n      and\n      0xffffffffffffffffffffffffffffffffffffffff\n      and\n      dup2\n      mstore\n      0x20\n      add\n      swap1\n      dup2\n      mstore\n      0x20\n      add\n      0x00\n      keccak256\n        /* \"contracts/Transaction.sol\":1253:1279  TicketOwner[i_owner].count */\n      0x01\n      add\n      0x00\n        /* \"contracts/Transaction.sol\":1253:1294  TicketOwner[i_owner].count -= i_dayAmount */\n      dup3\n      dup3\n      dup3\n      swap1\n      sload\n      swap1\n      0x0100\n      exp\n      swap1\n      div\n      0xffff\n      and\n      tag_61\n      swap2\n      swap1\n      tag_62\n      jump\t// in\n    tag_61:\n      swap3\n      pop\n      0x0100\n      exp\n      dup2\n      sload\n      dup2\n      0xffff\n      mul\n      not\n      and\n      swap1\n      dup4\n      0xffff\n      and\n      mul\n      or\n      swap1\n      sstore\n      pop\n        /* \"contracts/Transaction.sol\":1314:1324  msg.sender */\n      caller\n        /* \"contracts/Transaction.sol\":1305:1311  funder */\n      0x02\n      0x00\n        /* \"contracts/Transaction.sol\":1305:1324  funder = msg.sender */\n      0x0100\n      exp\n      dup2\n      sload\n      dup2\n      0xffffffffffffffffffffffffffffffffffffffff\n      mul\n      not\n      and\n      swap1\n      dup4\n      0xffffffffffffffffffffffffffffffffffffffff\n      and\n      mul\n      or\n      swap1\n      sstore\n      pop\n        /* \"contracts/Transaction.sol\":1344:1348  true */\n      0x01\n        /* \"contracts/Transaction.sol\":1335:1341  isDone */\n      0x02\n      0x14\n        /* \"contracts/Transaction.sol\":1335:1348  isDone = true */\n      0x0100\n      exp\n      dup2\n      sload\n      dup2\n      0xff\n      mul\n      not\n      and\n      swap1\n      dup4\n      iszero\n      iszero\n      mul\n      or\n      swap1\n      sstore\n      pop\n        /* \"contracts/Transaction.sol\":1392:1403  i_dayAmount */\n      immutable(\"0x60750e84e711126719e0768062cd3784906b181c157d8590d52843dc3c91240f\")\n        /* \"contracts/Transaction.sol\":1359:1370  TicketOwner */\n      0x01\n        /* \"contracts/Transaction.sol\":1359:1382  TicketOwner[msg.sender] */\n      0x00\n        /* \"contracts/Transaction.sol\":1371:1381  msg.sender */\n      caller\n        /* \"contracts/Transaction.sol\":1359:1382  TicketOwner[msg.sender] */\n      0xffffffffffffffffffffffffffffffffffffffff\n      and\n      0xffffffffffffffffffffffffffffffffffffffff\n      and\n      dup2\n      mstore\n      0x20\n      add\n      swap1\n      dup2\n      mstore\n      0x20\n      add\n      0x00\n      keccak256\n        /* \"contracts/Transaction.sol\":1359:1388  TicketOwner[msg.sender].count */\n      0x01\n      add\n      0x00\n        /* \"contracts/Transaction.sol\":1359:1403  TicketOwner[msg.sender].count += i_dayAmount */\n      dup3\n      dup3\n      dup3\n      swap1\n      sload\n      swap1\n      0x0100\n      exp\n      swap1\n      div\n      0xffff\n      and\n      tag_63\n      swap2\n      swap1\n      tag_64\n      jump\t// in\n    tag_63:\n      swap3\n      pop\n      0x0100\n      exp\n      dup2\n      sload\n      dup2\n      0xffff\n      mul\n      not\n      and\n      swap1\n      dup4\n      0xffff\n      and\n      mul\n      or\n      swap1\n      sstore\n      pop\n        /* \"contracts/Transaction.sol\":1073:1499  function fund() public payable notOwner haveAccount{... */\n      jump\t// out\n        /* \"contracts/Transaction.sol\":898:975  function getFee()public view returns(uint256) {... */\n    tag_31:\n        /* \"contracts/Transaction.sol\":935:942  uint256 */\n      0x00\n        /* \"contracts/Transaction.sol\":962:967  i_fee */\n      immutable(\"0x5b9d82bdb7ae056a203cf64bdf26f3fdec584cdfaca2ac8b4c3d0c5b66e90969\")\n        /* \"contracts/Transaction.sol\":955:967  return i_fee */\n      swap1\n      pop\n        /* \"contracts/Transaction.sol\":898:975  function getFee()public view returns(uint256) {... */\n      swap1\n      jump\t// out\n        /* \"contracts/Transaction.sol\":545:577  address public immutable i_owner */\n    tag_35:\n      immutable(\"0x4393e7114eb674248a1480712950c28cb06e118e040859a2eafa3ca8a6dfbd69\")\n      dup2\n      jump\t// out\n        /* \"#utility.yul\":7:133   */\n    tag_66:\n        /* \"#utility.yul\":44:51   */\n      0x00\n        /* \"#utility.yul\":84:126   */\n      0xffffffffffffffffffffffffffffffffffffffff\n        /* \"#utility.yul\":77:82   */\n      dup3\n        /* \"#utility.yul\":73:127   */\n      and\n        /* \"#utility.yul\":62:127   */\n      swap1\n      pop\n        /* \"#utility.yul\":7:133   */\n      swap2\n      swap1\n      pop\n      jump\t// out\n        /* \"#utility.yul\":139:235   */\n    tag_67:\n        /* \"#utility.yul\":176:183   */\n      0x00\n        /* \"#utility.yul\":205:229   */\n      tag_88\n        /* \"#utility.yul\":223:228   */\n      dup3\n        /* \"#utility.yul\":205:229   */\n      tag_66\n      jump\t// in\n    tag_88:\n        /* \"#utility.yul\":194:229   */\n      swap1\n      pop\n        /* \"#utility.yul\":139:235   */\n      swap2\n      swap1\n      pop\n      jump\t// out\n        /* \"#utility.yul\":241:359   */\n    tag_68:\n        /* \"#utility.yul\":328:352   */\n      tag_90\n        /* \"#utility.yul\":346:351   */\n      dup2\n        /* \"#utility.yul\":328:352   */\n      tag_67\n      jump\t// in\n    tag_90:\n        /* \"#utility.yul\":323:326   */\n      dup3\n        /* \"#utility.yul\":316:353   */\n      mstore\n        /* \"#utility.yul\":241:359   */\n      pop\n      pop\n      jump\t// out\n        /* \"#utility.yul\":365:587   */\n    tag_14:\n        /* \"#utility.yul\":458:462   */\n      0x00\n        /* \"#utility.yul\":496:498   */\n      0x20\n        /* \"#utility.yul\":485:494   */\n      dup3\n        /* \"#utility.yul\":481:499   */\n      add\n        /* \"#utility.yul\":473:499   */\n      swap1\n      pop\n        /* \"#utility.yul\":509:580   */\n      tag_92\n        /* \"#utility.yul\":577:578   */\n      0x00\n        /* \"#utility.yul\":566:575   */\n      dup4\n        /* \"#utility.yul\":562:579   */\n      add\n        /* \"#utility.yul\":553:559   */\n      dup5\n        /* \"#utility.yul\":509:580   */\n      tag_68\n      jump\t// in\n    tag_92:\n        /* \"#utility.yul\":365:587   */\n      swap3\n      swap2\n      pop\n      pop\n      jump\t// out\n        /* \"#utility.yul\":593:670   */\n    tag_69:\n        /* \"#utility.yul\":630:637   */\n      0x00\n        /* \"#utility.yul\":659:664   */\n      dup2\n        /* \"#utility.yul\":648:664   */\n      swap1\n      pop\n        /* \"#utility.yul\":593:670   */\n      swap2\n      swap1\n      pop\n      jump\t// out\n        /* \"#utility.yul\":676:794   */\n    tag_70:\n        /* \"#utility.yul\":763:787   */\n      tag_95\n        /* \"#utility.yul\":781:786   */\n      dup2\n        /* \"#utility.yul\":763:787   */\n      tag_69\n      jump\t// in\n    tag_95:\n        /* \"#utility.yul\":758:761   */\n      dup3\n        /* \"#utility.yul\":751:788   */\n      mstore\n        /* \"#utility.yul\":676:794   */\n      pop\n      pop\n      jump\t// out\n        /* \"#utility.yul\":800:1022   */\n    tag_22:\n        /* \"#utility.yul\":893:897   */\n      0x00\n        /* \"#utility.yul\":931:933   */\n      0x20\n        /* \"#utility.yul\":920:929   */\n      dup3\n        /* \"#utility.yul\":916:934   */\n      add\n        /* \"#utility.yul\":908:934   */\n      swap1\n      pop\n        /* \"#utility.yul\":944:1015   */\n      tag_97\n        /* \"#utility.yul\":1012:1013   */\n      0x00\n        /* \"#utility.yul\":1001:1010   */\n      dup4\n        /* \"#utility.yul\":997:1014   */\n      add\n        /* \"#utility.yul\":988:994   */\n      dup5\n        /* \"#utility.yul\":944:1015   */\n      tag_70\n      jump\t// in\n    tag_97:\n        /* \"#utility.yul\":800:1022   */\n      swap3\n      swap2\n      pop\n      pop\n      jump\t// out\n        /* \"#utility.yul\":1028:1175   */\n    tag_71:\n        /* \"#utility.yul\":1129:1140   */\n      0x00\n        /* \"#utility.yul\":1166:1169   */\n      dup2\n        /* \"#utility.yul\":1151:1169   */\n      swap1\n      pop\n        /* \"#utility.yul\":1028:1175   */\n      swap3\n      swap2\n      pop\n      pop\n      jump\t// out\n        /* \"#utility.yul\":1181:1295   */\n    tag_72:\n      pop\n      jump\t// out\n        /* \"#utility.yul\":1301:1699   */\n    tag_73:\n        /* \"#utility.yul\":1460:1463   */\n      0x00\n        /* \"#utility.yul\":1481:1564   */\n      tag_101\n        /* \"#utility.yul\":1562:1563   */\n      0x00\n        /* \"#utility.yul\":1557:1560   */\n      dup4\n        /* \"#utility.yul\":1481:1564   */\n      tag_71\n      jump\t// in\n    tag_101:\n        /* \"#utility.yul\":1474:1564   */\n      swap2\n      pop\n        /* \"#utility.yul\":1573:1666   */\n      tag_102\n        /* \"#utility.yul\":1662:1665   */\n      dup3\n        /* \"#utility.yul\":1573:1666   */\n      tag_72\n      jump\t// in\n    tag_102:\n        /* \"#utility.yul\":1691:1692   */\n      0x00\n        /* \"#utility.yul\":1686:1689   */\n      dup3\n        /* \"#utility.yul\":1682:1693   */\n      add\n        /* \"#utility.yul\":1675:1693   */\n      swap1\n      pop\n        /* \"#utility.yul\":1301:1699   */\n      swap2\n      swap1\n      pop\n      jump\t// out\n        /* \"#utility.yul\":1705:2084   */\n    tag_40:\n        /* \"#utility.yul\":1889:1892   */\n      0x00\n        /* \"#utility.yul\":1911:2058   */\n      tag_104\n        /* \"#utility.yul\":2054:2057   */\n      dup3\n        /* \"#utility.yul\":1911:2058   */\n      tag_73\n      jump\t// in\n    tag_104:\n        /* \"#utility.yul\":1904:2058   */\n      swap2\n      pop\n        /* \"#utility.yul\":2075:2078   */\n      dup2\n        /* \"#utility.yul\":2068:2078   */\n      swap1\n      pop\n        /* \"#utility.yul\":1705:2084   */\n      swap2\n      swap1\n      pop\n      jump\t// out\n        /* \"#utility.yul\":2090:2259   */\n    tag_74:\n        /* \"#utility.yul\":2174:2185   */\n      0x00\n        /* \"#utility.yul\":2208:2214   */\n      dup3\n        /* \"#utility.yul\":2203:2206   */\n      dup3\n        /* \"#utility.yul\":2196:2215   */\n      mstore\n        /* \"#utility.yul\":2248:2252   */\n      0x20\n        /* \"#utility.yul\":2243:2246   */\n      dup3\n        /* \"#utility.yul\":2239:2253   */\n      add\n        /* \"#utility.yul\":2224:2253   */\n      swap1\n      pop\n        /* \"#utility.yul\":2090:2259   */\n      swap3\n      swap2\n      pop\n      pop\n      jump\t// out\n        /* \"#utility.yul\":2265:2426   */\n    tag_75:\n        /* \"#utility.yul\":2405:2418   */\n      0x43616c6c206661696c6564000000000000000000000000000000000000000000\n        /* \"#utility.yul\":2401:2402   */\n      0x00\n        /* \"#utility.yul\":2393:2399   */\n      dup3\n        /* \"#utility.yul\":2389:2403   */\n      add\n        /* \"#utility.yul\":2382:2419   */\n      mstore\n        /* \"#utility.yul\":2265:2426   */\n      pop\n      jump\t// out\n        /* \"#utility.yul\":2432:2798   */\n    tag_76:\n        /* \"#utility.yul\":2574:2577   */\n      0x00\n        /* \"#utility.yul\":2595:2662   */\n      tag_108\n        /* \"#utility.yul\":2659:2661   */\n      0x0b\n        /* \"#utility.yul\":2654:2657   */\n      dup4\n        /* \"#utility.yul\":2595:2662   */\n      tag_74\n      jump\t// in\n    tag_108:\n        /* \"#utility.yul\":2588:2662   */\n      swap2\n      pop\n        /* \"#utility.yul\":2671:2764   */\n      tag_109\n        /* \"#utility.yul\":2760:2763   */\n      dup3\n        /* \"#utility.yul\":2671:2764   */\n      tag_75\n      jump\t// in\n    tag_109:\n        /* \"#utility.yul\":2789:2791   */\n      0x20\n        /* \"#utility.yul\":2784:2787   */\n      dup3\n        /* \"#utility.yul\":2780:2792   */\n      add\n        /* \"#utility.yul\":2773:2792   */\n      swap1\n      pop\n        /* \"#utility.yul\":2432:2798   */\n      swap2\n      swap1\n      pop\n      jump\t// out\n        /* \"#utility.yul\":2804:3223   */\n    tag_46:\n        /* \"#utility.yul\":2970:2974   */\n      0x00\n        /* \"#utility.yul\":3008:3010   */\n      0x20\n        /* \"#utility.yul\":2997:3006   */\n      dup3\n        /* \"#utility.yul\":2993:3011   */\n      add\n        /* \"#utility.yul\":2985:3011   */\n      swap1\n      pop\n        /* \"#utility.yul\":3057:3066   */\n      dup2\n        /* \"#utility.yul\":3051:3055   */\n      dup2\n        /* \"#utility.yul\":3047:3067   */\n      sub\n        /* \"#utility.yul\":3043:3044   */\n      0x00\n        /* \"#utility.yul\":3032:3041   */\n      dup4\n        /* \"#utility.yul\":3028:3045   */\n      add\n        /* \"#utility.yul\":3021:3068   */\n      mstore\n        /* \"#utility.yul\":3085:3216   */\n      tag_111\n        /* \"#utility.yul\":3211:3215   */\n      dup2\n        /* \"#utility.yul\":3085:3216   */\n      tag_76\n      jump\t// in\n    tag_111:\n        /* \"#utility.yul\":3077:3216   */\n      swap1\n      pop\n        /* \"#utility.yul\":2804:3223   */\n      swap2\n      swap1\n      pop\n      jump\t// out\n        /* \"#utility.yul\":3229:3452   */\n    tag_77:\n        /* \"#utility.yul\":3369:3403   */\n      0x4f776e65722063616e27742070617920666f722074686973207472616e736163\n        /* \"#utility.yul\":3365:3366   */\n      0x00\n        /* \"#utility.yul\":3357:3363   */\n      dup3\n        /* \"#utility.yul\":3353:3367   */\n      add\n        /* \"#utility.yul\":3346:3404   */\n      mstore\n        /* \"#utility.yul\":3438:3444   */\n      0x74696f6e00000000000000000000000000000000000000000000000000000000\n        /* \"#utility.yul\":3433:3435   */\n      0x20\n        /* \"#utility.yul\":3425:3431   */\n      dup3\n        /* \"#utility.yul\":3421:3436   */\n      add\n        /* \"#utility.yul\":3414:3445   */\n      mstore\n        /* \"#utility.yul\":3229:3452   */\n      pop\n      jump\t// out\n        /* \"#utility.yul\":3458:3824   */\n    tag_78:\n        /* \"#utility.yul\":3600:3603   */\n      0x00\n        /* \"#utility.yul\":3621:3688   */\n      tag_114\n        /* \"#utility.yul\":3685:3687   */\n      0x24\n        /* \"#utility.yul\":3680:3683   */\n      dup4\n        /* \"#utility.yul\":3621:3688   */\n      tag_74\n      jump\t// in\n    tag_114:\n        /* \"#utility.yul\":3614:3688   */\n      swap2\n      pop\n        /* \"#utility.yul\":3697:3790   */\n      tag_115\n        /* \"#utility.yul\":3786:3789   */\n      dup3\n        /* \"#utility.yul\":3697:3790   */\n      tag_77\n      jump\t// in\n    tag_115:\n        /* \"#utility.yul\":3815:3817   */\n      0x40\n        /* \"#utility.yul\":3810:3813   */\n      dup3\n        /* \"#utility.yul\":3806:3818   */\n      add\n        /* \"#utility.yul\":3799:3818   */\n      swap1\n      pop\n        /* \"#utility.yul\":3458:3824   */\n      swap2\n      swap1\n      pop\n      jump\t// out\n        /* \"#utility.yul\":3830:4249   */\n    tag_51:\n        /* \"#utility.yul\":3996:4000   */\n      0x00\n        /* \"#utility.yul\":4034:4036   */\n      0x20\n        /* \"#utility.yul\":4023:4032   */\n      dup3\n        /* \"#utility.yul\":4019:4037   */\n      add\n        /* \"#utility.yul\":4011:4037   */\n      swap1\n      pop\n        /* \"#utility.yul\":4083:4092   */\n      dup2\n        /* \"#utility.yul\":4077:4081   */\n      dup2\n        /* \"#utility.yul\":4073:4093   */\n      sub\n        /* \"#utility.yul\":4069:4070   */\n      0x00\n        /* \"#utility.yul\":4058:4067   */\n      dup4\n        /* \"#utility.yul\":4054:4071   */\n      add\n        /* \"#utility.yul\":4047:4094   */\n      mstore\n        /* \"#utility.yul\":4111:4242   */\n      tag_117\n        /* \"#utility.yul\":4237:4241   */\n      dup2\n        /* \"#utility.yul\":4111:4242   */\n      tag_78\n      jump\t// in\n    tag_117:\n        /* \"#utility.yul\":4103:4242   */\n      swap1\n      pop\n        /* \"#utility.yul\":3830:4249   */\n      swap2\n      swap1\n      pop\n      jump\t// out\n        /* \"#utility.yul\":4255:4429   */\n    tag_79:\n        /* \"#utility.yul\":4395:4421   */\n      0x54686973207472616e73616374696f6e20697320646f6e650000000000000000\n        /* \"#utility.yul\":4391:4392   */\n      0x00\n        /* \"#utility.yul\":4383:4389   */\n      dup3\n        /* \"#utility.yul\":4379:4393   */\n      add\n        /* \"#utility.yul\":4372:4422   */\n      mstore\n        /* \"#utility.yul\":4255:4429   */\n      pop\n      jump\t// out\n        /* \"#utility.yul\":4435:4801   */\n    tag_80:\n        /* \"#utility.yul\":4577:4580   */\n      0x00\n        /* \"#utility.yul\":4598:4665   */\n      tag_120\n        /* \"#utility.yul\":4662:4664   */\n      0x18\n        /* \"#utility.yul\":4657:4660   */\n      dup4\n        /* \"#utility.yul\":4598:4665   */\n      tag_74\n      jump\t// in\n    tag_120:\n        /* \"#utility.yul\":4591:4665   */\n      swap2\n      pop\n        /* \"#utility.yul\":4674:4767   */\n      tag_121\n        /* \"#utility.yul\":4763:4766   */\n      dup3\n        /* \"#utility.yul\":4674:4767   */\n      tag_79\n      jump\t// in\n    tag_121:\n        /* \"#utility.yul\":4792:4794   */\n      0x20\n        /* \"#utility.yul\":4787:4790   */\n      dup3\n        /* \"#utility.yul\":4783:4795   */\n      add\n        /* \"#utility.yul\":4776:4795   */\n      swap1\n      pop\n        /* \"#utility.yul\":4435:4801   */\n      swap2\n      swap1\n      pop\n      jump\t// out\n        /* \"#utility.yul\":4807:5226   */\n    tag_57:\n        /* \"#utility.yul\":4973:4977   */\n      0x00\n        /* \"#utility.yul\":5011:5013   */\n      0x20\n        /* \"#utility.yul\":5000:5009   */\n      dup3\n        /* \"#utility.yul\":4996:5014   */\n      add\n        /* \"#utility.yul\":4988:5014   */\n      swap1\n      pop\n        /* \"#utility.yul\":5060:5069   */\n      dup2\n        /* \"#utility.yul\":5054:5058   */\n      dup2\n        /* \"#utility.yul\":5050:5070   */\n      sub\n        /* \"#utility.yul\":5046:5047   */\n      0x00\n        /* \"#utility.yul\":5035:5044   */\n      dup4\n        /* \"#utility.yul\":5031:5048   */\n      add\n        /* \"#utility.yul\":5024:5071   */\n      mstore\n        /* \"#utility.yul\":5088:5219   */\n      tag_123\n        /* \"#utility.yul\":5214:5218   */\n      dup2\n        /* \"#utility.yul\":5088:5219   */\n      tag_80\n      jump\t// in\n    tag_123:\n        /* \"#utility.yul\":5080:5219   */\n      swap1\n      pop\n        /* \"#utility.yul\":4807:5226   */\n      swap2\n      swap1\n      pop\n      jump\t// out\n        /* \"#utility.yul\":5232:5396   */\n    tag_81:\n        /* \"#utility.yul\":5372:5388   */\n      0x6e6f7420656e6f75676820455448000000000000000000000000000000000000\n        /* \"#utility.yul\":5368:5369   */\n      0x00\n        /* \"#utility.yul\":5360:5366   */\n      dup3\n        /* \"#utility.yul\":5356:5370   */\n      add\n        /* \"#utility.yul\":5349:5389   */\n      mstore\n        /* \"#utility.yul\":5232:5396   */\n      pop\n      jump\t// out\n        /* \"#utility.yul\":5402:5768   */\n    tag_82:\n        /* \"#utility.yul\":5544:5547   */\n      0x00\n        /* \"#utility.yul\":5565:5632   */\n      tag_126\n        /* \"#utility.yul\":5629:5631   */\n      0x0e\n        /* \"#utility.yul\":5624:5627   */\n      dup4\n        /* \"#utility.yul\":5565:5632   */\n      tag_74\n      jump\t// in\n    tag_126:\n        /* \"#utility.yul\":5558:5632   */\n      swap2\n      pop\n        /* \"#utility.yul\":5641:5734   */\n      tag_127\n        /* \"#utility.yul\":5730:5733   */\n      dup3\n        /* \"#utility.yul\":5641:5734   */\n      tag_81\n      jump\t// in\n    tag_127:\n        /* \"#utility.yul\":5759:5761   */\n      0x20\n        /* \"#utility.yul\":5754:5757   */\n      dup3\n        /* \"#utility.yul\":5750:5762   */\n      add\n        /* \"#utility.yul\":5743:5762   */\n      swap1\n      pop\n        /* \"#utility.yul\":5402:5768   */\n      swap2\n      swap1\n      pop\n      jump\t// out\n        /* \"#utility.yul\":5774:6193   */\n    tag_60:\n        /* \"#utility.yul\":5940:5944   */\n      0x00\n        /* \"#utility.yul\":5978:5980   */\n      0x20\n        /* \"#utility.yul\":5967:5976   */\n      dup3\n        /* \"#utility.yul\":5963:5981   */\n      add\n        /* \"#utility.yul\":5955:5981   */\n      swap1\n      pop\n        /* \"#utility.yul\":6027:6036   */\n      dup2\n        /* \"#utility.yul\":6021:6025   */\n      dup2\n        /* \"#utility.yul\":6017:6037   */\n      sub\n        /* \"#utility.yul\":6013:6014   */\n      0x00\n        /* \"#utility.yul\":6002:6011   */\n      dup4\n        /* \"#utility.yul\":5998:6015   */\n      add\n        /* \"#utility.yul\":5991:6038   */\n      mstore\n        /* \"#utility.yul\":6055:6186   */\n      tag_129\n        /* \"#utility.yul\":6181:6185   */\n      dup2\n        /* \"#utility.yul\":6055:6186   */\n      tag_82\n      jump\t// in\n    tag_129:\n        /* \"#utility.yul\":6047:6186   */\n      swap1\n      pop\n        /* \"#utility.yul\":5774:6193   */\n      swap2\n      swap1\n      pop\n      jump\t// out\n        /* \"#utility.yul\":6199:6288   */\n    tag_83:\n        /* \"#utility.yul\":6235:6242   */\n      0x00\n        /* \"#utility.yul\":6275:6281   */\n      0xffff\n        /* \"#utility.yul\":6268:6273   */\n      dup3\n        /* \"#utility.yul\":6264:6282   */\n      and\n        /* \"#utility.yul\":6253:6282   */\n      swap1\n      pop\n        /* \"#utility.yul\":6199:6288   */\n      swap2\n      swap1\n      pop\n      jump\t// out\n        /* \"#utility.yul\":6294:6474   */\n    tag_84:\n        /* \"#utility.yul\":6342:6419   */\n      0x4e487b7100000000000000000000000000000000000000000000000000000000\n        /* \"#utility.yul\":6339:6340   */\n      0x00\n        /* \"#utility.yul\":6332:6420   */\n      mstore\n        /* \"#utility.yul\":6439:6443   */\n      0x11\n        /* \"#utility.yul\":6436:6437   */\n      0x04\n        /* \"#utility.yul\":6429:6444   */\n      mstore\n        /* \"#utility.yul\":6463:6467   */\n      0x24\n        /* \"#utility.yul\":6460:6461   */\n      0x00\n        /* \"#utility.yul\":6453:6468   */\n      revert\n        /* \"#utility.yul\":6480:6676   */\n    tag_62:\n        /* \"#utility.yul\":6519:6523   */\n      0x00\n        /* \"#utility.yul\":6539:6558   */\n      tag_133\n        /* \"#utility.yul\":6556:6557   */\n      dup3\n        /* \"#utility.yul\":6539:6558   */\n      tag_83\n      jump\t// in\n    tag_133:\n        /* \"#utility.yul\":6534:6558   */\n      swap2\n      pop\n        /* \"#utility.yul\":6572:6591   */\n      tag_134\n        /* \"#utility.yul\":6589:6590   */\n      dup4\n        /* \"#utility.yul\":6572:6591   */\n      tag_83\n      jump\t// in\n    tag_134:\n        /* \"#utility.yul\":6567:6591   */\n      swap3\n      pop\n        /* \"#utility.yul\":6615:6616   */\n      dup3\n        /* \"#utility.yul\":6612:6613   */\n      dup3\n        /* \"#utility.yul\":6608:6617   */\n      sub\n        /* \"#utility.yul\":6600:6617   */\n      swap1\n      pop\n        /* \"#utility.yul\":6639:6645   */\n      0xffff\n        /* \"#utility.yul\":6633:6637   */\n      dup2\n        /* \"#utility.yul\":6630:6646   */\n      gt\n        /* \"#utility.yul\":6627:6669   */\n      iszero\n      tag_135\n      jumpi\n        /* \"#utility.yul\":6649:6667   */\n      tag_136\n      tag_84\n      jump\t// in\n    tag_136:\n        /* \"#utility.yul\":6627:6669   */\n    tag_135:\n        /* \"#utility.yul\":6480:6676   */\n      swap3\n      swap2\n      pop\n      pop\n      jump\t// out\n        /* \"#utility.yul\":6682:6875   */\n    tag_64:\n        /* \"#utility.yul\":6721:6724   */\n      0x00\n        /* \"#utility.yul\":6740:6759   */\n      tag_138\n        /* \"#utility.yul\":6757:6758   */\n      dup3\n        /* \"#utility.yul\":6740:6759   */\n      tag_83\n      jump\t// in\n    tag_138:\n        /* \"#utility.yul\":6735:6759   */\n      swap2\n      pop\n        /* \"#utility.yul\":6773:6792   */\n      tag_139\n        /* \"#utility.yul\":6790:6791   */\n      dup4\n        /* \"#utility.yul\":6773:6792   */\n      tag_83\n      jump\t// in\n    tag_139:\n        /* \"#utility.yul\":6768:6792   */\n      swap3\n      pop\n        /* \"#utility.yul\":6815:6816   */\n      dup3\n        /* \"#utility.yul\":6812:6813   */\n      dup3\n        /* \"#utility.yul\":6808:6817   */\n      add\n        /* \"#utility.yul\":6801:6817   */\n      swap1\n      pop\n        /* \"#utility.yul\":6838:6844   */\n      0xffff\n        /* \"#utility.yul\":6833:6836   */\n      dup2\n        /* \"#utility.yul\":6830:6845   */\n      gt\n        /* \"#utility.yul\":6827:6868   */\n      iszero\n      tag_140\n      jumpi\n        /* \"#utility.yul\":6848:6866   */\n      tag_141\n      tag_84\n      jump\t// in\n    tag_141:\n        /* \"#utility.yul\":6827:6868   */\n    tag_140:\n        /* \"#utility.yul\":6682:6875   */\n      swap3\n      swap2\n      pop\n      pop\n      jump\t// out\n\n    auxdata: 0xa2646970667358221220fa81de267efdf501ba021e07043407b2dd8107d01741069a7bd95abbf12e0c9064736f6c63430008120033\n}\n",
				"bytecode": {
					"linkReferences": {},
					"object": "60e06040526000600260146101000a81548160ff0219169083151502179055506000600260156101000a81548160ff0219169083151502179055503480156200004757600080fd5b5060405162000c8738038062000c8783398181016040528101906200006d9190620001a6565b8273ffffffffffffffffffffffffffffffffffffffff1660808173ffffffffffffffffffffffffffffffffffffffff16815250508160a081815250508061ffff1660c08161ffff168152505050505062000202565b600080fd5b600073ffffffffffffffffffffffffffffffffffffffff82169050919050565b6000620000f482620000c7565b9050919050565b6200010681620000e7565b81146200011257600080fd5b50565b6000815190506200012681620000fb565b92915050565b6000819050919050565b62000141816200012c565b81146200014d57600080fd5b50565b600081519050620001618162000136565b92915050565b600061ffff82169050919050565b620001808162000167565b81146200018c57600080fd5b50565b600081519050620001a08162000175565b92915050565b600080600060608486031215620001c257620001c1620000c2565b5b6000620001d28682870162000115565b9350506020620001e58682870162000150565b9250506040620001f8868287016200018f565b9150509250925092565b60805160a05160c051610a24620002636000396000818161048e01526105a301526000818161029f0152818161042b01526106400152600081816101b7015281816102c5015281816102eb015281816104b301526106660152610a246000f3fe6080604052600436106100705760003560e01c8063893d20e81161004e578063893d20e8146100e2578063b60d42881461010d578063ced72f8714610117578063dba6335f1461014257610070565b8063041ae880146100755780633ccfd60b146100a057806365436609146100b7575b600080fd5b34801561008157600080fd5b5061008a61016d565b60405161009791906106c9565b60405180910390f35b3480156100ac57600080fd5b506100b5610193565b005b3480156100c357600080fd5b506100cc61029d565b6040516100d991906106fd565b60405180910390f35b3480156100ee57600080fd5b506100f76102c1565b60405161010491906106c9565b60405180910390f35b6101156102e9565b005b34801561012357600080fd5b5061012c61063c565b60405161013991906106fd565b60405180910390f35b34801561014e57600080fd5b50610157610664565b60405161016491906106c9565b60405180910390f35b600260009054906101000a900473ffffffffffffffffffffffffffffffffffffffff1681565b60001515600260159054906101000a900460ff161515146101b357600080fd5b60007f000000000000000000000000000000000000000000000000000000000000000073ffffffffffffffffffffffffffffffffffffffff16476040516101f990610749565b60006040518083038185875af1925050503d8060008114610236576040519150601f19603f3d011682016040523d82523d6000602084013e61023b565b606091505b505090508061027f576040517f08c379a0000000000000000000000000000000000000000000000000000000008152600401610276906107bb565b60405180910390fd5b6001600260156101000a81548160ff02191690831515021790555050565b7f000000000000000000000000000000000000000000000000000000000000000081565b60007f0000000000000000000000000000000000000000000000000000000000000000905090565b7f000000000000000000000000000000000000000000000000000000000000000073ffffffffffffffffffffffffffffffffffffffff163373ffffffffffffffffffffffffffffffffffffffff1603610377576040517f08c379a000000000000000000000000000000000000000000000000000000000815260040161036e9061084d565b60405180910390fd5b600115156000803373ffffffffffffffffffffffffffffffffffffffff1673ffffffffffffffffffffffffffffffffffffffff16815260200190815260200160002060009054906101000a900460ff161515146103d357600080fd5b60001515600260149054906101000a900460ff16151514610429576040517f08c379a0000000000000000000000000000000000000000000000000000000008152600401610420906108b9565b60405180910390fd5b7f000000000000000000000000000000000000000000000000000000000000000034101561048c576040517f08c379a000000000000000000000000000000000000000000000000000000000815260040161048390610925565b60405180910390fd5b7f0000000000000000000000000000000000000000000000000000000000000000600160007f000000000000000000000000000000000000000000000000000000000000000073ffffffffffffffffffffffffffffffffffffffff1673ffffffffffffffffffffffffffffffffffffffff16815260200190815260200160002060010160008282829054906101000a900461ffff1661052b9190610982565b92506101000a81548161ffff021916908361ffff16021790555033600260006101000a81548173ffffffffffffffffffffffffffffffffffffffff021916908373ffffffffffffffffffffffffffffffffffffffff1602179055506001600260146101000a81548160ff0219169083151502179055507f0000000000000000000000000000000000000000000000000000000000000000600160003373ffffffffffffffffffffffffffffffffffffffff1673ffffffffffffffffffffffffffffffffffffffff16815260200190815260200160002060010160008282829054906101000a900461ffff1661062091906109b8565b92506101000a81548161ffff021916908361ffff160217905550565b60007f0000000000000000000000000000000000000000000000000000000000000000905090565b7f000000000000000000000000000000000000000000000000000000000000000081565b600073ffffffffffffffffffffffffffffffffffffffff82169050919050565b60006106b382610688565b9050919050565b6106c3816106a8565b82525050565b60006020820190506106de60008301846106ba565b92915050565b6000819050919050565b6106f7816106e4565b82525050565b600060208201905061071260008301846106ee565b92915050565b600081905092915050565b50565b6000610733600083610718565b915061073e82610723565b600082019050919050565b600061075482610726565b9150819050919050565b600082825260208201905092915050565b7f43616c6c206661696c6564000000000000000000000000000000000000000000600082015250565b60006107a5600b8361075e565b91506107b08261076f565b602082019050919050565b600060208201905081810360008301526107d481610798565b9050919050565b7f4f776e65722063616e27742070617920666f722074686973207472616e73616360008201527f74696f6e00000000000000000000000000000000000000000000000000000000602082015250565b600061083760248361075e565b9150610842826107db565b604082019050919050565b600060208201905081810360008301526108668161082a565b9050919050565b7f54686973207472616e73616374696f6e20697320646f6e650000000000000000600082015250565b60006108a360188361075e565b91506108ae8261086d565b602082019050919050565b600060208201905081810360008301526108d281610896565b9050919050565b7f6e6f7420656e6f75676820455448000000000000000000000000000000000000600082015250565b600061090f600e8361075e565b915061091a826108d9565b602082019050919050565b6000602082019050818103600083015261093e81610902565b9050919050565b600061ffff82169050919050565b7f4e487b7100000000000000000000000000000000000000000000000000000000600052601160045260246000fd5b600061098d82610945565b915061099883610945565b9250828203905061ffff8111156109b2576109b1610953565b5b92915050565b60006109c382610945565b91506109ce83610945565b9250828201905061ffff8111156109e8576109e7610953565b5b9291505056fea2646970667358221220fa81de267efdf501ba021e07043407b2dd8107d01741069a7bd95abbf12e0c9064736f6c63430008120033",
					"opcodes": "PUSH1 0xE0 PUSH1 0x40 MSTORE PUSH1 0x0 PUSH1 0x2 PUSH1 0x14 PUSH2 0x100 EXP DUP2 SLOAD DUP2 PUSH1 0xFF MUL NOT AND SWAP1 DUP4 ISZERO ISZERO MUL OR SWAP1 SSTORE POP PUSH1 0x0 PUSH1 0x2 PUSH1 0x15 PUSH2 0x100 EXP DUP2 SLOAD DUP2 PUSH1 0xFF MUL NOT AND SWAP1 DUP4 ISZERO ISZERO MUL OR SWAP1 SSTORE POP CALLVALUE DUP1 ISZERO PUSH3 0x47 JUMPI PUSH1 0x0 DUP1 REVERT JUMPDEST POP PUSH1 0x40 MLOAD PUSH3 0xC87 CODESIZE SUB DUP1 PUSH3 0xC87 DUP4 CODECOPY DUP2 DUP2 ADD PUSH1 0x40 MSTORE DUP2 ADD SWAP1 PUSH3 0x6D SWAP2 SWAP1 PUSH3 0x1A6 JUMP JUMPDEST DUP3 PUSH20 0xFFFFFFFFFFFFFFFFFFFFFFFFFFFFFFFFFFFFFFFF AND PUSH1 0x80 DUP2 PUSH20 0xFFFFFFFFFFFFFFFFFFFFFFFFFFFFFFFFFFFFFFFF AND DUP2 MSTORE POP POP DUP2 PUSH1 0xA0 DUP2 DUP2 MSTORE POP POP DUP1 PUSH2 0xFFFF AND PUSH1 0xC0 DUP2 PUSH2 0xFFFF AND DUP2 MSTORE POP POP POP POP POP PUSH3 0x202 JUMP JUMPDEST PUSH1 0x0 DUP1 REVERT JUMPDEST PUSH1 0x0 PUSH20 0xFFFFFFFFFFFFFFFFFFFFFFFFFFFFFFFFFFFFFFFF DUP3 AND SWAP1 POP SWAP2 SWAP1 POP JUMP JUMPDEST PUSH1 0x0 PUSH3 0xF4 DUP3 PUSH3 0xC7 JUMP JUMPDEST SWAP1 POP SWAP2 SWAP1 POP JUMP JUMPDEST PUSH3 0x106 DUP2 PUSH3 0xE7 JUMP JUMPDEST DUP2 EQ PUSH3 0x112 JUMPI PUSH1 0x0 DUP1 REVERT JUMPDEST POP JUMP JUMPDEST PUSH1 0x0 DUP2 MLOAD SWAP1 POP PUSH3 0x126 DUP2 PUSH3 0xFB JUMP JUMPDEST SWAP3 SWAP2 POP POP JUMP JUMPDEST PUSH1 0x0 DUP2 SWAP1 POP SWAP2 SWAP1 POP JUMP JUMPDEST PUSH3 0x141 DUP2 PUSH3 0x12C JUMP JUMPDEST DUP2 EQ PUSH3 0x14D JUMPI PUSH1 0x0 DUP1 REVERT JUMPDEST POP JUMP JUMPDEST PUSH1 0x0 DUP2 MLOAD SWAP1 POP PUSH3 0x161 DUP2 PUSH3 0x136 JUMP JUMPDEST SWAP3 SWAP2 POP POP JUMP JUMPDEST PUSH1 0x0 PUSH2 0xFFFF DUP3 AND SWAP1 POP SWAP2 SWAP1 POP JUMP JUMPDEST PUSH3 0x180 DUP2 PUSH3 0x167 JUMP JUMPDEST DUP2 EQ PUSH3 0x18C JUMPI PUSH1 0x0 DUP1 REVERT JUMPDEST POP JUMP JUMPDEST PUSH1 0x0 DUP2 MLOAD SWAP1 POP PUSH3 0x1A0 DUP2 PUSH3 0x175 JUMP JUMPDEST SWAP3 SWAP2 POP POP JUMP JUMPDEST PUSH1 0x0 DUP1 PUSH1 0x0 PUSH1 0x60 DUP5 DUP7 SUB SLT ISZERO PUSH3 0x1C2 JUMPI PUSH3 0x1C1 PUSH3 0xC2 JUMP JUMPDEST JUMPDEST PUSH1 0x0 PUSH3 0x1D2 DUP7 DUP3 DUP8 ADD PUSH3 0x115 JUMP JUMPDEST SWAP4 POP POP PUSH1 0x20 PUSH3 0x1E5 DUP7 DUP3 DUP8 ADD PUSH3 0x150 JUMP JUMPDEST SWAP3 POP POP PUSH1 0x40 PUSH3 0x1F8 DUP7 DUP3 DUP8 ADD PUSH3 0x18F JUMP JUMPDEST SWAP2 POP POP SWAP3 POP SWAP3 POP SWAP3 JUMP JUMPDEST PUSH1 0x80 MLOAD PUSH1 0xA0 MLOAD PUSH1 0xC0 MLOAD PUSH2 0xA24 PUSH3 0x263 PUSH1 0x0 CODECOPY PUSH1 0x0 DUP2 DUP2 PUSH2 0x48E ADD MSTORE PUSH2 0x5A3 ADD MSTORE PUSH1 0x0 DUP2 DUP2 PUSH2 0x29F ADD MSTORE DUP2 DUP2 PUSH2 0x42B ADD MSTORE PUSH2 0x640 ADD MSTORE PUSH1 0x0 DUP2 DUP2 PUSH2 0x1B7 ADD MSTORE DUP2 DUP2 PUSH2 0x2C5 ADD MSTORE DUP2 DUP2 PUSH2 0x2EB ADD MSTORE DUP2 DUP2 PUSH2 0x4B3 ADD MSTORE PUSH2 0x666 ADD MSTORE PUSH2 0xA24 PUSH1 0x0 RETURN INVALID PUSH1 0x80 PUSH1 0x40 MSTORE PUSH1 0x4 CALLDATASIZE LT PUSH2 0x70 JUMPI PUSH1 0x0 CALLDATALOAD PUSH1 0xE0 SHR DUP1 PUSH4 0x893D20E8 GT PUSH2 0x4E JUMPI DUP1 PUSH4 0x893D20E8 EQ PUSH2 0xE2 JUMPI DUP1 PUSH4 0xB60D4288 EQ PUSH2 0x10D JUMPI DUP1 PUSH4 0xCED72F87 EQ PUSH2 0x117 JUMPI DUP1 PUSH4 0xDBA6335F EQ PUSH2 0x142 JUMPI PUSH2 0x70 JUMP JUMPDEST DUP1 PUSH4 0x41AE880 EQ PUSH2 0x75 JUMPI DUP1 PUSH4 0x3CCFD60B EQ PUSH2 0xA0 JUMPI DUP1 PUSH4 0x65436609 EQ PUSH2 0xB7 JUMPI JUMPDEST PUSH1 0x0 DUP1 REVERT JUMPDEST CALLVALUE DUP1 ISZERO PUSH2 0x81 JUMPI PUSH1 0x0 DUP1 REVERT JUMPDEST POP PUSH2 0x8A PUSH2 0x16D JUMP JUMPDEST PUSH1 0x40 MLOAD PUSH2 0x97 SWAP2 SWAP1 PUSH2 0x6C9 JUMP JUMPDEST PUSH1 0x40 MLOAD DUP1 SWAP2 SUB SWAP1 RETURN JUMPDEST CALLVALUE DUP1 ISZERO PUSH2 0xAC JUMPI PUSH1 0x0 DUP1 REVERT JUMPDEST POP PUSH2 0xB5 PUSH2 0x193 JUMP JUMPDEST STOP JUMPDEST CALLVALUE DUP1 ISZERO PUSH2 0xC3 JUMPI PUSH1 0x0 DUP1 REVERT JUMPDEST POP PUSH2 0xCC PUSH2 0x29D JUMP JUMPDEST PUSH1 0x40 MLOAD PUSH2 0xD9 SWAP2 SWAP1 PUSH2 0x6FD JUMP JUMPDEST PUSH1 0x40 MLOAD DUP1 SWAP2 SUB SWAP1 RETURN JUMPDEST CALLVALUE DUP1 ISZERO PUSH2 0xEE JUMPI PUSH1 0x0 DUP1 REVERT JUMPDEST POP PUSH2 0xF7 PUSH2 0x2C1 JUMP JUMPDEST PUSH1 0x40 MLOAD PUSH2 0x104 SWAP2 SWAP1 PUSH2 0x6C9 JUMP JUMPDEST PUSH1 0x40 MLOAD DUP1 SWAP2 SUB SWAP1 RETURN JUMPDEST PUSH2 0x115 PUSH2 0x2E9 JUMP JUMPDEST STOP JUMPDEST CALLVALUE DUP1 ISZERO PUSH2 0x123 JUMPI PUSH1 0x0 DUP1 REVERT JUMPDEST POP PUSH2 0x12C PUSH2 0x63C JUMP JUMPDEST PUSH1 0x40 MLOAD PUSH2 0x139 SWAP2 SWAP1 PUSH2 0x6FD JUMP JUMPDEST PUSH1 0x40 MLOAD DUP1 SWAP2 SUB SWAP1 RETURN JUMPDEST CALLVALUE DUP1 ISZERO PUSH2 0x14E JUMPI PUSH1 0x0 DUP1 REVERT JUMPDEST POP PUSH2 0x157 PUSH2 0x664 JUMP JUMPDEST PUSH1 0x40 MLOAD PUSH2 0x164 SWAP2 SWAP1 PUSH2 0x6C9 JUMP JUMPDEST PUSH1 0x40 MLOAD DUP1 SWAP2 SUB SWAP1 RETURN JUMPDEST PUSH1 0x2 PUSH1 0x0 SWAP1 SLOAD SWAP1 PUSH2 0x100 EXP SWAP1 DIV PUSH20 0xFFFFFFFFFFFFFFFFFFFFFFFFFFFFFFFFFFFFFFFF AND DUP2 JUMP JUMPDEST PUSH1 0x0 ISZERO ISZERO PUSH1 0x2 PUSH1 0x15 SWAP1 SLOAD SWAP1 PUSH2 0x100 EXP SWAP1 DIV PUSH1 0xFF AND ISZERO ISZERO EQ PUSH2 0x1B3 JUMPI PUSH1 0x0 DUP1 REVERT JUMPDEST PUSH1 0x0 PUSH32 0x0 PUSH20 0xFFFFFFFFFFFFFFFFFFFFFFFFFFFFFFFFFFFFFFFF AND SELFBALANCE PUSH1 0x40 MLOAD PUSH2 0x1F9 SWAP1 PUSH2 0x749 JUMP JUMPDEST PUSH1 0x0 PUSH1 0x40 MLOAD DUP1 DUP4 SUB DUP2 DUP6 DUP8 GAS CALL SWAP3 POP POP POP RETURNDATASIZE DUP1 PUSH1 0x0 DUP2 EQ PUSH2 0x236 JUMPI PUSH1 0x40 MLOAD SWAP2 POP PUSH1 0x1F NOT PUSH1 0x3F RETURNDATASIZE ADD AND DUP3 ADD PUSH1 0x40 MSTORE RETURNDATASIZE DUP3 MSTORE RETURNDATASIZE PUSH1 0x0 PUSH1 0x20 DUP5 ADD RETURNDATACOPY PUSH2 0x23B JUMP JUMPDEST PUSH1 0x60 SWAP2 POP JUMPDEST POP POP SWAP1 POP DUP1 PUSH2 0x27F JUMPI PUSH1 0x40 MLOAD PUSH32 0x8C379A000000000000000000000000000000000000000000000000000000000 DUP2 MSTORE PUSH1 0x4 ADD PUSH2 0x276 SWAP1 PUSH2 0x7BB JUMP JUMPDEST PUSH1 0x40 MLOAD DUP1 SWAP2 SUB SWAP1 REVERT JUMPDEST PUSH1 0x1 PUSH1 0x2 PUSH1 0x15 PUSH2 0x100 EXP DUP2 SLOAD DUP2 PUSH1 0xFF MUL NOT AND SWAP1 DUP4 ISZERO ISZERO MUL OR SWAP1 SSTORE POP POP JUMP JUMPDEST PUSH32 0x0 DUP2 JUMP JUMPDEST PUSH1 0x0 PUSH32 0x0 SWAP1 POP SWAP1 JUMP JUMPDEST PUSH32 0x0 PUSH20 0xFFFFFFFFFFFFFFFFFFFFFFFFFFFFFFFFFFFFFFFF AND CALLER PUSH20 0xFFFFFFFFFFFFFFFFFFFFFFFFFFFFFFFFFFFFFFFF AND SUB PUSH2 0x377 JUMPI PUSH1 0x40 MLOAD PUSH32 0x8C379A000000000000000000000000000000000000000000000000000000000 DUP2 MSTORE PUSH1 0x4 ADD PUSH2 0x36E SWAP1 PUSH2 0x84D JUMP JUMPDEST PUSH1 0x40 MLOAD DUP1 SWAP2 SUB SWAP1 REVERT JUMPDEST PUSH1 0x1 ISZERO ISZERO PUSH1 0x0 DUP1 CALLER PUSH20 0xFFFFFFFFFFFFFFFFFFFFFFFFFFFFFFFFFFFFFFFF AND PUSH20 0xFFFFFFFFFFFFFFFFFFFFFFFFFFFFFFFFFFFFFFFF AND DUP2 MSTORE PUSH1 0x20 ADD SWAP1 DUP2 MSTORE PUSH1 0x20 ADD PUSH1 0x0 KECCAK256 PUSH1 0x0 SWAP1 SLOAD SWAP1 PUSH2 0x100 EXP SWAP1 DIV PUSH1 0xFF AND ISZERO ISZERO EQ PUSH2 0x3D3 JUMPI PUSH1 0x0 DUP1 REVERT JUMPDEST PUSH1 0x0 ISZERO ISZERO PUSH1 0x2 PUSH1 0x14 SWAP1 SLOAD SWAP1 PUSH2 0x100 EXP SWAP1 DIV PUSH1 0xFF AND ISZERO ISZERO EQ PUSH2 0x429 JUMPI PUSH1 0x40 MLOAD PUSH32 0x8C379A000000000000000000000000000000000000000000000000000000000 DUP2 MSTORE PUSH1 0x4 ADD PUSH2 0x420 SWAP1 PUSH2 0x8B9 JUMP JUMPDEST PUSH1 0x40 MLOAD DUP1 SWAP2 SUB SWAP1 REVERT JUMPDEST PUSH32 0x0 CALLVALUE LT ISZERO PUSH2 0x48C JUMPI PUSH1 0x40 MLOAD PUSH32 0x8C379A000000000000000000000000000000000000000000000000000000000 DUP2 MSTORE PUSH1 0x4 ADD PUSH2 0x483 SWAP1 PUSH2 0x925 JUMP JUMPDEST PUSH1 0x40 MLOAD DUP1 SWAP2 SUB SWAP1 REVERT JUMPDEST PUSH32 0x0 PUSH1 0x1 PUSH1 0x0 PUSH32 0x0 PUSH20 0xFFFFFFFFFFFFFFFFFFFFFFFFFFFFFFFFFFFFFFFF AND PUSH20 0xFFFFFFFFFFFFFFFFFFFFFFFFFFFFFFFFFFFFFFFF AND DUP2 MSTORE PUSH1 0x20 ADD SWAP1 DUP2 MSTORE PUSH1 0x20 ADD PUSH1 0x0 KECCAK256 PUSH1 0x1 ADD PUSH1 0x0 DUP3 DUP3 DUP3 SWAP1 SLOAD SWAP1 PUSH2 0x100 EXP SWAP1 DIV PUSH2 0xFFFF AND PUSH2 0x52B SWAP2 SWAP1 PUSH2 0x982 JUMP JUMPDEST SWAP3 POP PUSH2 0x100 EXP DUP2 SLOAD DUP2 PUSH2 0xFFFF MUL NOT AND SWAP1 DUP4 PUSH2 0xFFFF AND MUL OR SWAP1 SSTORE POP CALLER PUSH1 0x2 PUSH1 0x0 PUSH2 0x100 EXP DUP2 SLOAD DUP2 PUSH20 0xFFFFFFFFFFFFFFFFFFFFFFFFFFFFFFFFFFFFFFFF MUL NOT AND SWAP1 DUP4 PUSH20 0xFFFFFFFFFFFFFFFFFFFFFFFFFFFFFFFFFFFFFFFF AND MUL OR SWAP1 SSTORE POP PUSH1 0x1 PUSH1 0x2 PUSH1 0x14 PUSH2 0x100 EXP DUP2 SLOAD DUP2 PUSH1 0xFF MUL NOT AND SWAP1 DUP4 ISZERO ISZERO MUL OR SWAP1 SSTORE POP PUSH32 0x0 PUSH1 0x1 PUSH1 0x0 CALLER PUSH20 0xFFFFFFFFFFFFFFFFFFFFFFFFFFFFFFFFFFFFFFFF AND PUSH20 0xFFFFFFFFFFFFFFFFFFFFFFFFFFFFFFFFFFFFFFFF AND DUP2 MSTORE PUSH1 0x20 ADD SWAP1 DUP2 MSTORE PUSH1 0x20 ADD PUSH1 0x0 KECCAK256 PUSH1 0x1 ADD PUSH1 0x0 DUP3 DUP3 DUP3 SWAP1 SLOAD SWAP1 PUSH2 0x100 EXP SWAP1 DIV PUSH2 0xFFFF AND PUSH2 0x620 SWAP2 SWAP1 PUSH2 0x9B8 JUMP JUMPDEST SWAP3 POP PUSH2 0x100 EXP DUP2 SLOAD DUP2 PUSH2 0xFFFF MUL NOT AND SWAP1 DUP4 PUSH2 0xFFFF AND MUL OR SWAP1 SSTORE POP JUMP JUMPDEST PUSH1 0x0 PUSH32 0x0 SWAP1 POP SWAP1 JUMP JUMPDEST PUSH32 0x0 DUP2 JUMP JUMPDEST PUSH1 0x0 PUSH20 0xFFFFFFFFFFFFFFFFFFFFFFFFFFFFFFFFFFFFFFFF DUP3 AND SWAP1 POP SWAP2 SWAP1 POP JUMP JUMPDEST PUSH1 0x0 PUSH2 0x6B3 DUP3 PUSH2 0x688 JUMP JUMPDEST SWAP1 POP SWAP2 SWAP1 POP JUMP JUMPDEST PUSH2 0x6C3 DUP2 PUSH2 0x6A8 JUMP JUMPDEST DUP3 MSTORE POP POP JUMP JUMPDEST PUSH1 0x0 PUSH1 0x20 DUP3 ADD SWAP1 POP PUSH2 0x6DE PUSH1 0x0 DUP4 ADD DUP5 PUSH2 0x6BA JUMP JUMPDEST SWAP3 SWAP2 POP POP JUMP JUMPDEST PUSH1 0x0 DUP2 SWAP1 POP SWAP2 SWAP1 POP JUMP JUMPDEST PUSH2 0x6F7 DUP2 PUSH2 0x6E4 JUMP JUMPDEST DUP3 MSTORE POP POP JUMP JUMPDEST PUSH1 0x0 PUSH1 0x20 DUP3 ADD SWAP1 POP PUSH2 0x712 PUSH1 0x0 DUP4 ADD DUP5 PUSH2 0x6EE JUMP JUMPDEST SWAP3 SWAP2 POP POP JUMP JUMPDEST PUSH1 0x0 DUP2 SWAP1 POP SWAP3 SWAP2 POP POP JUMP JUMPDEST POP JUMP JUMPDEST PUSH1 0x0 PUSH2 0x733 PUSH1 0x0 DUP4 PUSH2 0x718 JUMP JUMPDEST SWAP2 POP PUSH2 0x73E DUP3 PUSH2 0x723 JUMP JUMPDEST PUSH1 0x0 DUP3 ADD SWAP1 POP SWAP2 SWAP1 POP JUMP JUMPDEST PUSH1 0x0 PUSH2 0x754 DUP3 PUSH2 0x726 JUMP JUMPDEST SWAP2 POP DUP2 SWAP1 POP SWAP2 SWAP1 POP JUMP JUMPDEST PUSH1 0x0 DUP3 DUP3 MSTORE PUSH1 0x20 DUP3 ADD SWAP1 POP SWAP3 SWAP2 POP POP JUMP JUMPDEST PUSH32 0x43616C6C206661696C6564000000000000000000000000000000000000000000 PUSH1 0x0 DUP3 ADD MSTORE POP JUMP JUMPDEST PUSH1 0x0 PUSH2 0x7A5 PUSH1 0xB DUP4 PUSH2 0x75E JUMP JUMPDEST SWAP2 POP PUSH2 0x7B0 DUP3 PUSH2 0x76F JUMP JUMPDEST PUSH1 0x20 DUP3 ADD SWAP1 POP SWAP2 SWAP1 POP JUMP JUMPDEST PUSH1 0x0 PUSH1 0x20 DUP3 ADD SWAP1 POP DUP2 DUP2 SUB PUSH1 0x0 DUP4 ADD MSTORE PUSH2 0x7D4 DUP2 PUSH2 0x798 JUMP JUMPDEST SWAP1 POP SWAP2 SWAP1 POP JUMP JUMPDEST PUSH32 0x4F776E65722063616E27742070617920666F722074686973207472616E736163 PUSH1 0x0 DUP3 ADD MSTORE PUSH32 0x74696F6E00000000000000000000000000000000000000000000000000000000 PUSH1 0x20 DUP3 ADD MSTORE POP JUMP JUMPDEST PUSH1 0x0 PUSH2 0x837 PUSH1 0x24 DUP4 PUSH2 0x75E JUMP JUMPDEST SWAP2 POP PUSH2 0x842 DUP3 PUSH2 0x7DB JUMP JUMPDEST PUSH1 0x40 DUP3 ADD SWAP1 POP SWAP2 SWAP1 POP JUMP JUMPDEST PUSH1 0x0 PUSH1 0x20 DUP3 ADD SWAP1 POP DUP2 DUP2 SUB PUSH1 0x0 DUP4 ADD MSTORE PUSH2 0x866 DUP2 PUSH2 0x82A JUMP JUMPDEST SWAP1 POP SWAP2 SWAP1 POP JUMP JUMPDEST PUSH32 0x54686973207472616E73616374696F6E20697320646F6E650000000000000000 PUSH1 0x0 DUP3 ADD MSTORE POP JUMP JUMPDEST PUSH1 0x0 PUSH2 0x8A3 PUSH1 0x18 DUP4 PUSH2 0x75E JUMP JUMPDEST SWAP2 POP PUSH2 0x8AE DUP3 PUSH2 0x86D JUMP JUMPDEST PUSH1 0x20 DUP3 ADD SWAP1 POP SWAP2 SWAP1 POP JUMP JUMPDEST PUSH1 0x0 PUSH1 0x20 DUP3 ADD SWAP1 POP DUP2 DUP2 SUB PUSH1 0x0 DUP4 ADD MSTORE PUSH2 0x8D2 DUP2 PUSH2 0x896 JUMP JUMPDEST SWAP1 POP SWAP2 SWAP1 POP JUMP JUMPDEST PUSH32 0x6E6F7420656E6F75676820455448000000000000000000000000000000000000 PUSH1 0x0 DUP3 ADD MSTORE POP JUMP JUMPDEST PUSH1 0x0 PUSH2 0x90F PUSH1 0xE DUP4 PUSH2 0x75E JUMP JUMPDEST SWAP2 POP PUSH2 0x91A DUP3 PUSH2 0x8D9 JUMP JUMPDEST PUSH1 0x20 DUP3 ADD SWAP1 POP SWAP2 SWAP1 POP JUMP JUMPDEST PUSH1 0x0 PUSH1 0x20 DUP3 ADD SWAP1 POP DUP2 DUP2 SUB PUSH1 0x0 DUP4 ADD MSTORE PUSH2 0x93E DUP2 PUSH2 0x902 JUMP JUMPDEST SWAP1 POP SWAP2 SWAP1 POP JUMP JUMPDEST PUSH1 0x0 PUSH2 0xFFFF DUP3 AND SWAP1 POP SWAP2 SWAP1 POP JUMP JUMPDEST PUSH32 0x4E487B7100000000000000000000000000000000000000000000000000000000 PUSH1 0x0 MSTORE PUSH1 0x11 PUSH1 0x4 MSTORE PUSH1 0x24 PUSH1 0x0 REVERT JUMPDEST PUSH1 0x0 PUSH2 0x98D DUP3 PUSH2 0x945 JUMP JUMPDEST SWAP2 POP PUSH2 0x998 DUP4 PUSH2 0x945 JUMP JUMPDEST SWAP3 POP DUP3 DUP3 SUB SWAP1 POP PUSH2 0xFFFF DUP2 GT ISZERO PUSH2 0x9B2 JUMPI PUSH2 0x9B1 PUSH2 0x953 JUMP JUMPDEST JUMPDEST SWAP3 SWAP2 POP POP JUMP JUMPDEST PUSH1 0x0 PUSH2 0x9C3 DUP3 PUSH2 0x945 JUMP JUMPDEST SWAP2 POP PUSH2 0x9CE DUP4 PUSH2 0x945 JUMP JUMPDEST SWAP3 POP DUP3 DUP3 ADD SWAP1 POP PUSH2 0xFFFF DUP2 GT ISZERO PUSH2 0x9E8 JUMPI PUSH2 0x9E7 PUSH2 0x953 JUMP JUMPDEST JUMPDEST SWAP3 SWAP2 POP POP JUMP INVALID LOG2 PUSH5 0x6970667358 0x22 SLT KECCAK256 STATICCALL DUP2 0xDE 0x26 PUSH31 0xFDF501BA021E07043407B2DD8107D01741069A7BD95ABBF12E0C9064736F6C PUSH4 0x43000812 STOP CALLER "
				},
				"gasEstimates": {
					"creation": {
						"codeDepositCost": "519200",
						"executionCost": "infinite",
						"totalCost": "infinite"
					},
					"external": {
						"fund()": "infinite",
						"funder()": "2515",
						"getFee()": "infinite",
						"getOwner()": "infinite",
						"i_fee()": "infinite",
						"i_owner()": "infinite",
						"withdraw()": "infinite"
					}
				},
				"methodIdentifiers": {
					"fund()": "b60d4288",
					"funder()": "041ae880",
					"getFee()": "ced72f87",
					"getOwner()": "893d20e8",
					"i_fee()": "65436609",
					"i_owner()": "dba6335f",
					"withdraw()": "3ccfd60b"
				}
			},
			"storageLayout": {
				"storage": [
					{
						"astId": 37,
						"contract": "contracts/Transaction.sol:Transaction",
						"label": "hasAccount",
						"offset": 0,
						"slot": "0",
						"type": "t_mapping(t_address,t_bool)"
					},
					{
						"astId": 42,
						"contract": "contracts/Transaction.sol:Transaction",
						"label": "TicketOwner",
						"offset": 0,
						"slot": "1",
						"type": "t_mapping(t_address,t_struct(Ticket)33_storage)"
					},
					{
						"astId": 93,
						"contract": "contracts/Transaction.sol:Transaction",
						"label": "funder",
						"offset": 0,
						"slot": "2",
						"type": "t_address"
					},
					{
						"astId": 100,
						"contract": "contracts/Transaction.sol:Transaction",
						"label": "isDone",
						"offset": 20,
						"slot": "2",
						"type": "t_bool"
					},
					{
						"astId": 103,
						"contract": "contracts/Transaction.sol:Transaction",
						"label": "isWithdraw",
						"offset": 21,
						"slot": "2",
						"type": "t_bool"
					}
				],
				"types": {
					"t_address": {
						"encoding": "inplace",
						"label": "address",
						"numberOfBytes": "20"
					},
					"t_bool": {
						"encoding": "inplace",
						"label": "bool",
						"numberOfBytes": "1"
					},
					"t_mapping(t_address,t_bool)": {
						"encoding": "mapping",
						"key": "t_address",
						"label": "mapping(address => bool)",
						"numberOfBytes": "32",
						"value": "t_bool"
					},
					"t_mapping(t_address,t_struct(Ticket)33_storage)": {
						"encoding": "mapping",
						"key": "t_address",
						"label": "mapping(address => struct Storage.Ticket)",
						"numberOfBytes": "32",
						"value": "t_struct(Ticket)33_storage"
					},
					"t_string_storage": {
						"encoding": "bytes",
						"label": "string",
						"numberOfBytes": "32"
					},
					"t_struct(Ticket)33_storage": {
						"encoding": "inplace",
						"label": "struct Storage.Ticket",
						"members": [
							{
								"astId": 30,
								"contract": "contracts/Transaction.sol:Transaction",
								"label": "name",
								"offset": 0,
								"slot": "0",
								"type": "t_string_storage"
							},
							{
								"astId": 32,
								"contract": "contracts/Transaction.sol:Transaction",
								"label": "count",
								"offset": 0,
								"slot": "1",
								"type": "t_uint16"
							}
						],
						"numberOfBytes": "64"
					},
					"t_uint16": {
						"encoding": "inplace",
						"label": "uint16",
						"numberOfBytes": "2"
					}
				}
			},
			"userdoc": {
				"kind": "user",
				"methods": {},
				"version": 1
			}
		}
	}
}