{
	"data": {
		"bytecode": {
			"linkReferences": {},
			"object": "608060405234801561001057600080fd5b5060ef8061001f6000396000f3fe608060405260043610601c5760003560e01c806341bb26d3146021575b600080fd5b6037600480360381019060339190604f565b6039565b005b50565b60008135905060498160a5565b92915050565b600060208284031215606057600080fd5b6000606c84828501603c565b91505092915050565b6000607e826085565b9050919050565b600073ffffffffffffffffffffffffffffffffffffffff82169050919050565b60ac816075565b811460b657600080fd5b5056fea2646970667358221220e0d39f54db4c0d4fec3b2e015bdc010f5f51beb4414c05093c0b4b3325950de564736f6c63430008030033",
			"opcodes": "PUSH1 0x80 PUSH1 0x40 MSTORE CALLVALUE DUP1 ISZERO PUSH2 0x10 JUMPI PUSH1 0x0 DUP1 REVERT JUMPDEST POP PUSH1 0xEF DUP1 PUSH2 0x1F PUSH1 0x0 CODECOPY PUSH1 0x0 RETURN INVALID PUSH1 0x80 PUSH1 0x40 MSTORE PUSH1 0x4 CALLDATASIZE LT PUSH1 0x1C JUMPI PUSH1 0x0 CALLDATALOAD PUSH1 0xE0 SHR DUP1 PUSH4 0x41BB26D3 EQ PUSH1 0x21 JUMPI JUMPDEST PUSH1 0x0 DUP1 REVERT JUMPDEST PUSH1 0x37 PUSH1 0x4 DUP1 CALLDATASIZE SUB DUP2 ADD SWAP1 PUSH1 0x33 SWAP2 SWAP1 PUSH1 0x4F JUMP JUMPDEST PUSH1 0x39 JUMP JUMPDEST STOP JUMPDEST POP JUMP JUMPDEST PUSH1 0x0 DUP2 CALLDATALOAD SWAP1 POP PUSH1 0x49 DUP2 PUSH1 0xA5 JUMP JUMPDEST SWAP3 SWAP2 POP POP JUMP JUMPDEST PUSH1 0x0 PUSH1 0x20 DUP3 DUP5 SUB SLT ISZERO PUSH1 0x60 JUMPI PUSH1 0x0 DUP1 REVERT JUMPDEST PUSH1 0x0 PUSH1 0x6C DUP5 DUP3 DUP6 ADD PUSH1 0x3C JUMP JUMPDEST SWAP2 POP POP SWAP3 SWAP2 POP POP JUMP JUMPDEST PUSH1 0x0 PUSH1 0x7E DUP3 PUSH1 0x85 JUMP JUMPDEST SWAP1 POP SWAP2 SWAP1 POP JUMP JUMPDEST PUSH1 0x0 PUSH20 0xFFFFFFFFFFFFFFFFFFFFFFFFFFFFFFFFFFFFFFFF DUP3 AND SWAP1 POP SWAP2 SWAP1 POP JUMP JUMPDEST PUSH1 0xAC DUP2 PUSH1 0x75 JUMP JUMPDEST DUP2 EQ PUSH1 0xB6 JUMPI PUSH1 0x0 DUP1 REVERT JUMPDEST POP JUMP INVALID LOG2 PUSH5 0x6970667358 0x22 SLT KECCAK256 0xE0 0xD3 SWAP16 SLOAD 0xDB 0x4C 0xD 0x4F 0xEC EXTCODESIZE 0x2E ADD JUMPDEST 0xDC ADD 0xF 0x5F MLOAD 0xBE 0xB4 COINBASE 0x4C SDIV MULMOD EXTCODECOPY SIGNEXTEND 0x4B CALLER 0x25 SWAP6 0xD 0xE5 PUSH5 0x736F6C6343 STOP ADDMOD SUB STOP CALLER "
		},
		"gasEstimates": {
			"creation": {
				"codeDepositCost": "47800",
				"executionCost": "99",
				"totalCost": "47899"
			},
			"external": {
				"handlePayment(address)": "409"
			}
		},
		"methodIdentifiers": {
			"handlePayment(address)": "41bb26d3"
		}
	},
	"abi": [
		{
			"inputs": [
				{
					"internalType": "address",
					"name": "senderAddress",
					"type": "address"
				}
			],
			"name": "handlePayment",
			"outputs": [],
			"stateMutability": "payable",
			"type": "function"
		}
	]
}